:100000000C9434000C9451000C9451000C94510049
:100010000C9451000C9451000C9451000C9451001C
:100020000C9451000C9451000C94A9000C945100B4
:100030000C9451000C945A000C9451000C945100F3
:100040000C9451000C9451000C9451000C945100EC
:100050000C9451000C9451000C9451000C945100DC
:100060000C9451000C94510011241FBECFEFD8E026
:10007000DEBFCDBF11E0A0E0B1E0E2E6FAE002C0F1
:1000800005900D92A434B107D9F721E0A4E4B1E0C2
:1000900001C01D92AC37B207E1F70E940F020C9429
:1000A0002F050C94000082E88093810081E2809308
:1000B0006F0008951F920F920FB60F9211248F9325
:1000C00080910001813029F4809144018F5F8093F9
:1000D000440180914401843029F41092450182E06A
:1000E000809300018F910F900FBE0F901F90189575
:1000F000F894E8E4F1E08AE2DF011D928A95E9F7DD
:1001000010A611A610924701109245017894089507
:10011000E0917101F0E0EE0FFF1FE85BFE4F91836D
:10012000808380917101833119F41092710105C0AF
:10013000809171018F5F8093710190917101809125
:100140007001981302C082E001C081E080934701F2
:1001500008951F920F920FB60F9211242F933F9381
:100160004F935F936F937F938F939F93AF93BF93BF
:10017000EF93FF9310928500109284001092440137
:1001800080918600909187000E948800FF91EF91F6
:10019000BF91AF919F918F917F916F915F914F919F
:1001A0003F912F910F900FBE0F901F901895F894CC
:1001B000E0917001F0E0EE0FFF1FE85BFE4F208141
:1001C000318180917001833119F41092700105C062
:1001D000909170019F5F9093700190917001809158
:1001E0007101981303C01092470103C081E080930E
:1001F00047017894C901089580914701813009F041
:10020000F6C00E94D700209145012F5F2093450141
:1002100020914501223039F4885A9146893893411A
:1002200008F4EBC0DEC020914501233208F0A1C0E4
:1002300020914501233008F49CC09C01205A3F4086
:1002400021323340F0F5809145018B3068F42091E4
:10025000450130917201235081E090E001C0880F88
:100260002A95EAF7832B46C080914501833168F4D3
:1002700020914501309173012B5081E090E001C045
:10028000880F2A95EAF7832B4BC080914501209176
:1002900045018B3158F430917401235181E090E095
:1002A00001C0880F2A95EAF7832B50C03091750161
:1002B0002B5181E090E001C0880F2A95EAF7832B4B
:1002C00055C0885097408935924008F08AC0809187
:1002D00045018B3090F420914501309172012350FB
:1002E00081E090E002C0880F991F2A95E2F780957F
:1002F0009095832380937201089580914501833105
:1003000090F420914501309173012B5081E090E0F1
:1003100002C0880F991F2A95E2F780959095832354
:1003200080937301089580914501209145018B319F
:1003300080F430917401235181E090E002C0880F75
:10034000991F2A95E2F780959095832380937401F5
:100350000895309175012B5181E090E002C0880F23
:10036000991F2A95E2F780959095832380937501D4
:10037000089520914501233289F490917401809170
:1003800075018095981306C01092000181E080935A
:10039000460108951092450184E026C02091450150
:1003A000243239F49C0120523E44213A3F4080F4EB
:1003B00024C020914501253201F59C012053324F84
:1003C000293B3B4028F483E28093450181E00CC047
:1003D000885A91468938934120F482E08093450100
:1003E00008951092450183E0809300010895809163
:1003F0004701823011F40C9478000895CF93C82FF0
:100400008A3019F48DE00E94FE018091C00085FFC2
:10041000FCCFC093C60080E090E0CF9108950E9489
:10042000450281E091E090937901809378010E94E8
:1004300053007894CFE0D1E00E94FC008091460107
:10044000811104C0809100018130B1F71092460102
:100450003091750120917401909172018091730126
:100460001F923F931F922F931F929F931F928F93E0
:10047000DF93CF930E9451028DB79EB70A960FB6B5
:10048000F8949EBF0FBE8DBFD7CF1092C50080E1FC
:100490008093C40088E18093C1008EE28093C20003
:1004A0000895A0E0B0E0E7E5F2E00C940805AE01A5
:1004B0004B5F5F4FFA0161917191AF0180917801BB
:1004C000909179010E946702E2E00C942405ABE070
:1004D000B0E0EDE6F2E00C94F8046C017B018A01D7
:1004E000FC0117821682838181FFCCC1CE01019667
:1004F0003C01F6019381F70193FD859193FF819172
:100500007F01882309F4BAC1853239F493FD8591BE
:1005100093FF81917F01853229F4B60190E00E941A
:100520005E04E7CF912C212C312CFFE1F315D8F09C
:100530008B3279F038F4803279F08332A1F4232DB4
:1005400020611DC08D3261F0803369F4232D21605C
:1005500016C0832D8260382EE32DE4603E2E2AC023
:10056000F32DF8601DC037FC2DC020ED280F2A3078
:1005700040F08E32B9F436FC81C1232D2064322E36
:1005800019C036FE06C08AE0989E200D1124922ED6
:1005900011C0EAE02E9E200D1124222EF32DF062D0
:1005A0003F2E08C08C3621F4832D8068382E02C07F
:1005B000883641F4F70193FD859193FF81917F0186
:1005C0008111B3CF982F9F7D9554933028F40C5F01
:1005D0001F4F9FE399830DC0833631F0833771F04D
:1005E000833509F059C021C0F801808189830E5FED
:1005F0001F4F88248394912C530113C02801F2E0EB
:100600004F0E511CF801A080B18036FE03C0692D49
:1006100070E002C06FEF7FEFC5010E9453044C01F0
:100620008201F32DFF773F2E16C0280122E0420EF3
:10063000511CF801A080B18036FE03C0692D70E026
:1006400002C06FEF7FEFC5010E9448044C01F32DFB
:10065000F0683F2E820133FC1BC0822D90E088168B
:100660009906B0F4B60180E290E00E945E042A94FC
:10067000F4CFF50137FC859137FE81915F01B6011A
:1006800090E00E945E0421102A9421E0821A9108D1
:100690008114910471F7E8C0843611F0893641F570
:1006A000F80137FE07C060817181828193810C5F00
:1006B0001F4F08C060817181072E000C880B990BB9
:1006C0000E5F1F4FF32DFF763F2E97FF09C09095C9
:1006D0008095709561957F4F8F4F9F4FF0683F2EAB
:1006E0002AE030E0A3010E949A04882E861845C0B3
:1006F000853731F4232D2F7EB22E2AE030E025C03D
:10070000932D997FB92E8F36C1F018F4883579F082
:10071000B5C0803719F0883721F0B0C0E92FE0610B
:10072000BE2EB4FE0DC0FB2DF460BF2E09C034FEFA
:100730000AC0292F2660B22E06C028E030E005C08E
:1007400020E130E002C020E132E0F801B7FE07C04E
:1007500060817181828193810C5F1F4F06C060812F
:10076000718180E090E00E5F1F4FA3010E949A0408
:10077000882E8618FB2DFF773F2E36FE0DC0232DC9
:100780002E7FA22E891458F434FE0BC032FC09C00F
:10079000832D8E7EA82E05C0B82CA32C03C0B82CA8
:1007A00001C0B92CA4FE0FC0FE01E80DF11D80812F
:1007B000803321F49A2D997EA92E09C0A2FE06C08D
:1007C000B394B39404C08A2D867809F0B394A3FC43
:1007D00011C0A0FE06C0B21488F4280C922C9B18FD
:1007E0000EC0B21460F4B60180E290E00E945E0494
:1007F000B394F7CFB21418F42B1802C0982C212C04
:10080000A4FE10C0B60180E390E00E945E04A2FE48
:1008100017C0A1FC03C088E790E002C088E590E023
:10082000B6010CC08A2D867859F0A1FE02C08BE279
:1008300001C080E2A7FC8DE2B60190E00E945E0458
:10084000891438F4B60180E390E00E945E049A9423
:10085000F7CF8A94F301E80DF11D8081B60190E095
:100860000E945E048110F5CF222009F442CEB60129
:1008700080E290E00E945E042A94F6CFF601868121
:10088000978102C08FEF9FEF2B96E2E10C94140545
:10089000FC010590615070400110D8F7809590954B
:1008A0008E0F9F1F0895FC01615070400190011050
:1008B000D8F7809590958E0F9F1F08950F931F93E3
:1008C000CF93DF93FB01238121FD03C08FEF9FEFC7
:1008D0002CC022FF16C046815781248135814217E2
:1008E000530744F4A081B1819D012F5F3F4F3183B5
:1008F00020838C93268137812F5F3F4F3783268358
:1009000014C08B01EC01FB010084F185E02D0995F9
:10091000892BE1F6D80116968D919C911797019637
:1009200017969C938E931697CE01DF91CF911F91CE
:100930000F910895FA01AA27283051F1203181F151
:10094000E8946F936E7F6E5F7F4F8F4F9F4FAF4FD7
:10095000B1E03ED0B4E03CD0670F781F891F9A1FEA
:10096000A11D680F791F8A1F911DA11D6A0F711D9E
:10097000811D911DA11D20D009F468943F912AE0AA
:10098000269F11243019305D3193DEF6CF01089592
:10099000462F4770405D4193B3E00FD0C9F7F6CFC3
:1009A000462F4F70405D4A3318F0495D31FD40528B
:1009B000419302D0A9F7EACFB4E0A6959795879521
:1009C00077956795BA95C9F7009761057105089500
:1009D0009B01AC010A2E06945795479537952795AC
:1009E000BA95C9F7620F731F841F951FA01D089544
:1009F0002F923F924F925F926F927F928F929F922F
:100A0000AF92BF92CF92DF92EF92FF920F931F931C
:100A1000CF93DF93CDB7DEB7CA1BDB0B0FB6F894CD
:100A2000DEBF0FBECDBF09942A88398848885F840D
:100A30006E847D848C849B84AA84B984C884DF807E
:100A4000EE80FD800C811B81AA81B981CE0FD11D62
:100A50000FB6F894DEBF0FBECDBFED010895F89438
:020A6000FFCFC6
:100A6200020000000200000000FE01000000006E13
:100A720065635F616464726C3D2575206E65635FBA
:100A820061646472683D2575206E65635F636D64A1
:100A92003D2575206E65635F636D64696E763D25E5
:040AA200750A0000D1
:00000001FF
