S01500006E65635F69725F6465636F64652E73726563DC
S11300000C9434000C9451000C9451000C94510045
S11300100C9451000C9451000C9451000C94510018
S11300200C9451000C9451000C946C000C945100ED
S11300300C9451000C94EA010C9451000C9451005E
S11300400C9451000C9451000C9451000C945100E8
S11300500C9451000C9451000C9451000C945100D8
S11300600C9451000C94510011241FBECFEFD8E022
S1130070DEBFCDBF11E0A0E0B1E0E2E2FCE002C0EF
S113008005900D92A431B107D9F721E0A4E1B1E0C4
S113009001C01D92A132B207E1F70E9444020C9400
S11300A00F060C940000CF93C82F8A3019F48DE00A
S11300B00E945300E0ECF0E0808185FFFDCFC09307
S11300C0C60080E090E0CF91089582E8809381009B
S11300D081E280936F0008951F920F920FB60F92E2
S11300E011242F933F938F939F93EF93FF93109239
S11300F0850010928400809115018F5F8093150113
S113010010921401809115018230A9F48091860027
S1130110909187008133954740F4809186009091B7
S11301208700883A914608F04AC11092150183E08D
S113013080930E0144C180911501833208F0CBC035
S113014080911501833008F4C6C080918600909197
S11301508700813C924108F054C0809186009091C0
S11301608700803A9F4008F44CC0809115018B3081
S113017080F420911501E7E1F1E03081235081E022
S113018090E002C0880F991F2A95E2F7832B8083A1
S113019016C180911501833180F420911501E7E1A6
S11301A0F1E031812B5081E090E002C0880F991F6B
S11301B02A95E2F7832B818302C1809115018B314B
S11301C080F420911501E7E1F1E03281235181E0CF
S11301D090E002C0880F991F2A95E2F7832B82834F
S11301E0EEC020911501E7E1F1E033812B5181E06C
S11301F090E002C0880F991F2A95E2F7832B83832E
S1130200DEC080918600909187008136994008F085
S11302105CC080918600909187008830974008F4F4
S113022054C0809115018B3090F420911501E7E1C1
S1130230F1E03081235081E090E002C0880F991FE3
S11302402A95E2F78095909583238083B8C08091A6
S11302501501833190F420911501E7E1F1E031813A
S11302602B5081E090E002C0880F991F2A95E2F795
S11302708095909583238183A2C0809115018B3151
S113028090F420911501E7E1F1E03281235181E0FE
S113029090E002C0880F991F2A95E2F78095909507
S11302A0832382838CC020911501E7E1F1E033813F
S11302B02B5181E090E002C0880F991F2A95E2F744
S11302C080959095832383837AC01092150183E0EF
S11302D080930E0174C0809115018332A9F4E7E183
S11302E0F1E0928183818095981308C010920E01E9
S11302F0809116018F5F8093160161C010921501E1
S113030084E080930E015BC080911501843239F53D
S11303108091860090918700813C9D4540F48091B6
S113032086009091870080329E4408F048C08091F6
S11303308600909187008133954758F48091860018
S113034090918700883A914620F082E080931501CD
S113035036C01092150183E080930E0130C0809165
S11303601501853261F58091860090918700893E60
S11303709D4F70F480918600909187008033924F56
S113038038F083E28093150181E080930E0117C059
S113039080918600909187008133954758F480912D
S11303A0860090918700883A914620F082E08093FD
S11303B0150105C01092150183E080930E01FF9191
S11303C0EF919F918F913F912F910F900FBE0F90BE
S11303D01F9018951F920F920FB60F9211248F93AE
S11303E0809114018F5F80931401809114018530F2
S11303F029F41092150182E080930E018F910F90E1
S11304000FBE0F901F9018959BB194619BB99BB13F
S113041097779BB988BD67BD08959BB198689BB9D0
S11304209BB19B7E9BB988BD67BD08959BB19861C4
S11304309BB99BB19B779BB988BD67BD08959BB160
S113044094689BB99BB1977E9BB988BD67BD08959D
S11304505A9A9BB197769BB988BD08955C9A9BB1D3
S113046093779BB987BD08955F9A9BB1937E9BB99F
S113047087BD08955B9A9BB19B769BB988BD08950F
S11304808BB183768BB9089582E090E00E94C20517
S1130490F82E81E090E00E94C205E82E1092C5007B
S11304A080E18093C40088E18093C1008EE2809350
S11304B0C20080E091E090931E0180931D018AB1F7
S11304C08C6F8AB981EA84BD85E085BD0E94650090
S11304D087B1806387B9C8B180E090E00E94C2050B
S11304E08C2B88B97894C7E1D1E00F2EF0E3DF2E8E
S11304F0F02D0FE011E080910E01882329F0809106
S11305000E01813009F048C08A818A3C19F08A8141
S1130510833929F46E2D8F2D0E94040243C08A81F1
S1130520823D19F08A818B3829F46E2D8F2D0E941B
S11305300D0238C08A81813C19F08A81883C29F4F3
S11305406E2D8F2D0E941F022DC08A81893919F0CA
S11305508A818E3829F46E2D8F2D0E94160222C0B6
S11305608A81823921F48E2D0E942E021BC08A8139
S11305708C3C21F48F2D0E94280214C08A818A3871
S113058021F48F2D0E943A020DC08A81843C51F4DB
S11305908E2D0E94340206C080910E01823011F427
S11305A00E944002809116018823C9F1109216011D
S11305B08A818D3D31F48FEFF81611F185E0F80E44
S11305C01FC08A818C3829F4FF20D1F08BEFF80EFC
S11305D017C08A81883931F48FEFE81689F085E0F5
S11305E0E80E0EC08A81873929F4EE2049F08BEF9A
S11305F0E80E06C08A818C3D19F488B18D2588B92E
S113060068B180E090E00E94CA056F2D82E090E01E
S11306100E94CA056E2D81E090E00E94CA058A817D
S11306201F928F931F930F930E941B030F900F90A1
S11306300F900F9060CFA0E0B0E0E1E2F3E00C9403
S1130640E805AE014B5F5F4FFA0161917191AF0113
S113065080911D0190911E010E943103E2E00C94EF
S11306600406ABE0B0E0E7E3F3E00C94D8056C01DA
S11306707B018A01FC0117821682838181FFCCC130
S1130680CE0101963C01F6019381F70193FD85911A
S113069093FF81917F01882309F4BAC1853239F42B
S11306A093FD859193FF81917F01853229F4B601F1
S11306B090E00E942805E7CF912C212C312CFFE1FA
S11306C0F315D8F08B3279F038F4803279F0833234
S11306D0A1F4232D20611DC08D3261F0803369F4B3
S11306E0232D216016C0832D8260382EE32DE46013
S11306F03E2E2AC0F32DF8601DC037FC2DC020ED1E
S1130700280F2A3040F08E32B9F436FC81C1232DF3
S11307102064322E19C036FE06C08AE0989E200D51
S11307201124922E11C0EAE02E9E200D1124222EB7
S1130730F32DF0623F2E08C08C3621F4832D80689F
S1130740382E02C0883641F4F70193FD859193FF5A
S113075081917F018111B3CF982F9F7D9554933060
S113076028F40C5F1F4F9FE399830DC0833631F04B
S1130770833771F0833509F059C021C0F8018081B5
S113078089830E5F1F4F88248394912C530113C0D7
S11307902801F2E04F0E511CF801A080B18036FE12
S11307A003C0692D70E002C06FEF7FEFC5010E94A6
S11307B01D054C018201F32DFF773F2E16C0280141
S11307C022E0420E511CF801A080B18036FE03C025
S11307D0692D70E002C06FEF7FEFC5010E94120522
S11307E04C01F32DF0683F2E820133FC1BC0822D97
S11307F090E088169906B0F4B60180E290E00E9479
S113080028052A94F4CFF50137FC859137FE8191B0
S11308105F01B60190E00E94280521102A9421E08E
S1130820821A91088114910471F7E8C0843611F09A
S1130830893641F5F80137FE07C0608171818281F4
S113084093810C5F1F4F08C060817181072E000CDB
S1130850880B990B0E5F1F4FF32DFF763F2E97FFEA
S113086009C090958095709561957F4F8F4F9F4FEC
S1130870F0683F2E2AE030E0A3010E946405882E30
S1130880861845C0853731F4232D2F7EB22E2AE0F9
S113089030E025C0932D997FB92E8F36C1F018F41E
S11308A0883579F0B5C0803719F0883721F0B0C0A9
S11308B0E92FE061BE2EB4FE0DC0FB2DF460BF2E07
S11308C009C034FE0AC0292F2660B22E06C028E0D3
S11308D030E005C020E130E002C020E132E0F80160
S11308E0B7FE07C060817181828193810C5F1F4FC5
S11308F006C06081718180E090E00E5F1F4FA3010C
S11309000E946405882E8618FB2DFF773F2E36FE45
S11309100DC0232D2E7FA22E891458F434FE0BC053
S113092032FC09C0832D8E7EA82E05C0B82CA32CC2
S113093003C0B82C01C0B92CA4FE0FC0FE01E80D01
S1130940F11D8081803321F49A2D997EA92E09C04E
S1130950A2FE06C0B394B39404C08A2D867809F02D
S1130960B394A3FC11C0A0FE06C0B21488F4280CF2
S1130970922C9B180EC0B21460F4B60180E290E091
S11309800E942805B394F7CFB21418F42B1802C0B0
S1130990982C212CA4FE10C0B60180E390E00E94A4
S11309A02805A2FE17C0A1FC03C088E790E002C09E
S11309B088E590E0B6010CC08A2D867859F0A1FE36
S11309C002C08BE201C080E2A7FC8DE2B60190E098
S11309D00E942805891438F4B60180E390E00E944F
S11309E028059A94F7CF8A94F301E80DF11D8081CC
S11309F0B60190E00E9428058110F5CF222009F469
S1130A0042CEB60180E290E00E9428052A94F6CFF7
S1130A10F6018681978102C08FEF9FEF2B96E2E16A
S1130A200C94F405FC010590615070400110D8F756
S1130A30809590958E0F9F1F0895FC016150704022
S1130A4001900110D8F7809590958E0F9F1F0895FF
S1130A500F931F93CF93DF93FB01238121FD03C0E9
S1130A608FEF9FEF2CC022FF16C04681578124814F
S1130A7035814217530744F4A081B1819D012F5F52
S1130A803F4F318320838C93268137812F5F3F4FE3
S1130A903783268314C08B01EC01FB010084F185AC
S1130AA0E02D0995892BE1F6D80116968D919C913C
S1130AB01797019617969C938E931697CE01DF9104
S1130AC0CF911F910F910895FA01AA27283051F16F
S1130AD0203181F1E8946F936E7F6E5F7F4F8F4F6B
S1130AE09F4FAF4FB1E03ED0B4E03CD0670F781FCA
S1130AF0891F9A1FA11D680F791F8A1F911DA11DAF
S1130B006A0F711D811D911DA11D20D009F46894E7
S1130B103F912AE0269F11243019305D3193DEF68F
S1130B20CF010895462F4770405D4193B3E00FD045
S1130B30C9F7F6CF462F4F70405D4A3318F0495D30
S1130B4031FD4052419302D0A9F7EACFB4E0A69513
S1130B509795879577956795BA95C9F70097610535
S1130B60710508959B01AC010A2E0694579547958B
S1130B7037952795BA95C9F7620F731F841F951F80
S1130B80A01D0895F999FECF92BD81BDF89A9927C9
S1130B9080B50895262FF999FECF1FBA92BD81BD65
S1130BA020BD0FB6F894FA9AF99A0FBE01960895EB
S1130BB02F923F924F925F926F927F928F929F9269
S1130BC0AF92BF92CF92DF92EF92FF920F931F9357
S1130BD0CF93DF93CDB7DEB7CA1BDB0B0FB6F89408
S1130BE0DEBF0FBECDBF09942A88398848885F8448
S1130BF06E847D848C849B84AA84B984C884DF80B9
S1130C00EE80FD800C811B81AA81B981CE0FD11D9C
S1130C100FB6F894DEBF0FBECDBFED010895F89472
S1050C20FFCF00
S1130C220000000200000000530000000000022542
S1070C32750A00003B
S9030000FC
