:100000000C9434000C9451000C9451000C94510049
:100010000C9451000C9451000C9451000C9451001C
:100020000C9451000C9451000C9451000C9451000C
:100030000C9451000C9451000C9451000C945100FC
:100040000C9451000C9451000C9451000C945100EC
:100050000C9451000C9451000C9451000C945100DC
:100060000C9451000C94510011241FBECFEFD8E026
:10007000DEBFCDBF11E0A0E0B1E0EAE5F1E002C0F3
:1000800005900D92A431B107D9F721E0A4E1B1E0C8
:1000900001C01D92AA31B207E1F70E9465000C94DD
:1000A000AB000C940000CF93C82F8A3019F48DE078
:1000B0000E945300E0ECF0E0808185FFFDCFC0930B
:1000C000C60080E090E0CF9108951092C50080E1D5
:1000D0008093C40088E18093C1008EE28093C200C7
:1000E00080E091E090931701809316018EE091E0FB
:1000F0000E947B00FBCF0F931F93CF93DF93E09180
:100100001601F0911701238121FF1BC08C01D0E063
:10011000C0E0F80181918F01609116017091170183
:10012000DB011896ED91FC911997882331F0099520
:10013000892B79F3DFEFCFEFECCF8AE00995892B9C
:1001400019F08FEF9FEF02C08D2F9C2FDF91CF9181
:0A0150001F910F910895F894FFCF5E
:10015A000000000200000000530000000000686573
:04016A006C6C6F004A
:00000001FF
