S01000006F6C6564206C63642E737265631D
S11300000C9445000C9462000C9462000C94620001
S11300100C9462000C9462000C9462000C946200D4
S11300200C9462000C9462000C9462000C946200C4
S11300300C9462000C9462000C9462000C946200B4
S11300400C9462000C9462000C9462000C946200A4
S11300500C9462000C9462000C9462000C94620094
S11300600C9462000C946200001020002100FF2216
S113007000FFB000A1A8FFC8D300DA12D5F0D9223E
S1130080DB2081FFA4A68D142EAF11241FBECFEF59
S1130090D8E0DEBFCDBF11E0A0E0B1E0E2EFF1E0D7
S11300A002C005900D92AE30B107D9F725E0AEE05D
S11300B0B1E001C01D92A631B207E1F70E94D5005C
S11300C00C94F7000C94000020E131E048E080E05B
S11300D090E0F901E80FF91F10820196803891052C
S11300E0C1F7415020583F4F4111F1CF0895CF93AC
S11300F0C82F8A3019F48DE00E9477008091C000E7
S113010085FFFCCFC093C60080E090E0CF910895B6
S113011084EA8093BC008091BC0087FFFCCF0895E3
S11301208093BB0084E88093BC008091BC0087FF6F
S1130130FCCF08950E94880088E70E94900080E028
S11301400C9490000E94880088E70E94900080E44C
S11301500C9490000F931F93CF93DF93EB018C01CA
S1130160F80184910E94900021970F5F1F4F209700
S1130170B9F7DF91CF911F910F910895CF93DF933A
S11301800E94A200C0E0D4E080E00E949000219789
S1130190D9F784E98093BC000E94640010920F0197
S11301A010920E01DF91CF9108951092C50080E165
S11301B08093C40088E18093C1008EE28093C200E2
S11301C080E091E090931305809312058CE0809376
S11301D0B8000E949A0062E270E088E690E00E9413
S11301E0AA0084E98093BC000E94BE00FFCFF8946B
S10501F0FFCF3B
S11101F2000000020000000077000000000082
S9030000FC
