S021000073656C665F62616C616E63696E675F726F626F745F726576322E73726563F8
S11300000C94D3000C94F0000C94F0000C94F000C9
S11300100C94F0000C94F0000C94F0000C948D01FE
S11300200C94F0000C94F0000C94F0000C94F0008C
S11300300C94F0000C94F0000C94F0000C94F0007C
S11300400C94F0000C94F0000C94F0000C94F0006C
S11300500C94F0000C94F0000C94F0000C94F0005C
S11300600C94F0000C94F000036EDB363D9A9999E1
S1130070993DABAAAA2A3E000000803F072C7AA52E
S1130080BA6CC590DA3B9365FC8BBC53F810FD3C0D
S11300905692834DBD879D3AB63DCBC9BF5BBE73B7
S11300A0DA0FC93F6E616E00696E660000407A1017
S11300B0F35A00A0724E18090010A5D4E80000E815
S11300C07648170000E40B54020000CA9A3B000073
S11300D000E1F505000080969800000040420F0002
S11300E00000A08601000000102700000000E803C3
S11300F0000000006400000000000A00000000008E
S11301000100000000002C76D888DC674F0823DF4C
S1130110C1DFAE59E1B1B796E5E3E453C63AE6511F
S1130120997696E8E6C28426EB898C9B62ED407C46
S11301306FFCEFBC9C9F40F2BAA56FA5F490055AE2
S11301402AF75C936B6CF9676DC11BFCE0E40D4707
S1130150FEF520E6B500D0ED902E0300943577052A
S11301600080841E080000204E0A000000C80C33E2
S11301703333330F986E12831141EF8D2114893B71
S1130180E65516CFFEE6DB18D1844B381BF77C1DF1
S1130190901DA4BBE424203284725E228100C9F144
S11301A024ECA1E53D2711241FBECFEFD8E0DEBF2C
S11301B0CDBF11E0A0E0B1E0EEEBFAE102C00590A2
S11301C00D92AA31B107D9F721E0AAE1B1E001C04B
S11301D01D92AC35B207E1F70E94F2040C945D0D58
S11301E00C940000CF93C82F8A3019F48DE00E943C
S11301F0F2008091C00085FFFCCFC093C60080E070
S113020090E0CF91089584EA8093BC008091BC0073
S113021087FFFCCF089584EC8093BC008091BC00E0
S113022087FFFCCF8091BB00089584E88093BC00D5
S11302308091BC0087FFFCCF8091BB000895809320
S1130240BB0084E88093BC008091BC0087FFFCCF96
S11302500895CF93DF93D82FC62F0E94030180ED1A
S11302600E941F018D2F0E941F018C2F0E941F01CD
S113027084E98093BC00DF91CF910895EF92FF92BF
S11302800F931F93CF93F82E8B01C42F0E94030169
S113029080ED0E941F018F2D0E941F010E94030107
S11302A081ED0E941F01C13029F40E941501F8015B
S11302B0808309C07801FFEFEF1AFF0A0E940B0147
S11302C0F80180838701C15071F784E98093BC00F1
S11302D0CF911F910F91FF90EF9008959BB194617E
S11302E09BB99BB197779BB988BD67BD08959BB1B6
S11302F098689BB99BB19B7E9BB988BD67BD0895E7
S113030081E08093B00083E08093B1008AE0809321
S1130310B30082E08093700008951F920F920FB68D
S11303200F9211248F929F92AF92BF92CF92DF923D
S1130330EF92FF922F933F934F935F936F937F932B
S11303408F939F93AF93BF93CF93EF93FF9346E025
S113035062E471E08BE30E943E0146E068E471E0F0
S113036083E40E943E01609142017091430176272B
S113037067277627072E000C880B990B0E944906E5
S113038020E030E040E058E30E9459070E948605CF
S113039020EE3EE245EE52E40E945907609352017A
S11303A070935301809354019093550160914A01D5
S11303B070914B01762767277627072E000C880B50
S11303C0990B0E94490620E030E040E058E30E9487
S11303D0590720E030E04AE753E40E94590760934C
S11303E02E0170932F01809330019093310160911D
S11303F02E0170912F018091300190913101209153
S11304000E0130910F014091100150911101C090E3
S11304102A01D0902B01E0902C01F0902D018090C6
S1130420520190905301A0905401B09055010E9444
S11304305907A70196010E941A0528E431EE4AE7FC
S11304405FE30E9459076B017C012AE037ED43EA20
S11304505CE3C501B4010E9459079B01AC01C701CB
S1130460B6010E941A0560932A0170932B018093B0
S11304702C0190932D0160911601709117018091C8
S113048018019091190120912A0130912B0140917A
S11304902C0150912D010E94190560933E01709327
S11304A03F01809340019093410160911A01709142
S11304B01B0180911C0190911D0120913E013091FE
S11304C03F0140914001509141010E941A056093FF
S11304D01A0170931B0180931C0190931D0160917C
S11304E012017091130180911401909115012091D2
S11304F03E0130913F0140914001509141010E94E1
S113050059076093360170933701809338019093B3
S1130510390160912201709123018091240190910D
S1130520250120911A0130911B0140911C01509129
S11305301D01C0900E01D0900F01E0901001F090C9
S113054011010E945907A70196010E94590760935F
S11305503A0170933B0180933C0190933D0160917B
S11305603E0170913F0180914001909141012091A1
S11305701E0130911F014091200150912101809072
S1130580260190902701A0902801B0902901C090E5
S11305900E01D0900F01E0901001F09011010E9423
S11305A01905A50194010E945907A70196010E940B
S11305B0A60560934E0170934F0180935001909370
S11305C0510180913E0190913F01A0914001B09171
S11305D0410180931E0190931F01A0932001B093C9
S11305E02101609136017091370180913801909119
S11305F0390120E030E04FE753E40E94540787FDBF
S113060005C080E090E0AFE7B3E414C06091360128
S113061070913701809138019091390120E030E0E8
S11306204FE753EC0E94A105181664F080E090E0B7
S1130630AFE7B3EC8093360190933701A093380170
S1130640B093390160913A0170913B0180913C0172
S113065090913D0120E030E0A9010E945407181652
S11306607CF460913E0170913F0180914001909132
S1130670410120E030E0A9010E94A10587FD1EC0D0
S113068060913A0170913B0180913C0190913D0150
S113069020E030E0A9010E94A10587FF1FC06091FE
S11306A03E0170913F01809140019091410120E011
S11306B030E0A9010E945407181684F410923A01FC
S11306C010923B0110923C0110923D0110921A01CC
S11306D010921B0110921C0110921D0160912201C5
S11306E070912301809124019091250120910E01A4
S11306F030910F014091100150911101C0901A01E5
S1130700D0901B01E0901C01F0901D010E9459073C
S11307109B01AC0160E070E08FE793E40E94A605C2
S1130720A70196010E94A1051816CCF06091220140
S113073070912301809124019091250120910E0153
S113074030910F0140911001509111010E945907FD
S11307509B01AC0160E070E08FE793E440C06091DE
S1130760220170912301809124019091250120910F
S11307700E0130910F014091100150911101C09070
S11307801A01D0901B01E0901C01F0901D010E9401
S113079059079B01AC0160E070E08FE793EC0E9485
S11307A0A605A70196010E94540787FD22C0609107
S11307B022017091230180912401909125012091BF
S11307C00E0130910F0140911001509111010E94CE
S11307D059079B01AC0160E070E08FE793EC0E9445
S11307E0A60560931A0170931B0180931C019093DA
S11307F01D0160914E0170914F01809150019091C3
S1130800510120E030E04FE753E40E94540787FD94
S113081005C080E090E0AFE7B3E414C060914E01FE
S113082070914F01809150019091510120E030E08E
S11308304FE753EC0E94A105181664F080E090E0A5
S1130840AFE7B3EC80934E0190934F01A093500116
S1130850B093510160913601709137018091380154
S11308609091390120913A0130913B0140913C0132
S113087050913D01C0904E01D0904F01E090500145
S1130880F09051010E941A05A70196010E941A05D1
S11308906093320170933301809334019093350156
S11308A0609132017091330180913401909135014E
S11308B020E030E04FE753E40E94540787FD05C071
S11308C080E090E0AFE7B3E414C06091320170912E
S11308D03301809134019091350120E030E04FE7FD
S11308E053EC0E94A105181664F080E090E0AFE795
S11308F0B3EC8093320190933301A0933401B0930D
S113090035016091320170913301809134019091ED
S1130910350120E030E0A9010E94540787FD1CC086
S113092060913201709133018091340190913501CD
S1130930C0903201D0903301E0903401F090350141
S11309400E941806C62FC701B6010E941806862FFA
S11309506C2F0E9477012CC0809132019091330159
S1130960A0913401B0913501B05880933201909335
S11309703301A0933401B093350160913201709139
S113098033018091340190913501C0903201D090AF
S11309903301E0903401F09035010E941806C62F0F
S11309A0C701B6010E941806862F6C2F0E946E01A3
S11309B0FF91EF91CF91BF91AF919F918F917F91D3
S11309C06F915F914F913F912F91FF90EF90DF9046
S11309D0CF90BF90AF909F908F900F900FBE0F90CD
S11309E01F9018951092C50080E18093C40088E19F
S11309F08093C1008EE28093C20080E091E09093E6
S1130A005901809358018AB18C6F8AB981EA84BDF7
S1130A1085E085BD8CE08093B80061E08BE60E94A0
S1130A20290160E08AE10E9429010E9480017894F2
S1130A30FFCF5058BB27AA270E9431050C941A07F0
S1130A400E940C0738F00E94130720F039F49F3FEE
S1130A5019F426F40C94CE060EF4E095E7FB0C94FE
S1130A60C806E92F0E942B0758F3BA1762077307C9
S1130A708407950720F079F4A6F50C944D070EF43D
S1130A80E0950B2EBA2FA02D0B01B90190010C019A
S1130A90CA01A0011124FF27591B99F0593F50F4B2
S1130AA0503E68F11A16F040A22F232F342F44270A
S1130AB0585FF3CF469537952795A795F040539502
S1130AC0C9F77EF41F16BA0B620B730B840BBAF0D2
S1130AD09150A1F0FF0FBB1F661F771F881FC2F73D
S1130AE00EC0BA0F621F731F841F48F48795779551
S1130AF06795B795F7959E3F08F0B0CF9395880F0B
S1130B0008F09927EE0F9795879508959F939F77FF
S1130B10EEE389379E0728F4E8E6F0E00E94F80641
S1130B200CC00E9484069058A2EA2AED3FE049ECEA
S1130B305FE30E9431050E941A070F9007FC90584A
S1130B4008950E94A40608F481E008950E94BA055D
S1130B500C941A070E94130758F00E940C0740F0E7
S1130B6029F45F3F29F00C94C80651110C944E07E8
S1130B700C94CE060E942B0768F39923B1F35523F6
S1130B8091F3951B550BBB27AA276217730784079C
S1130B9038F09F5F5F4F220F331F441FAA1FA9F332
S1130BA035D00E2E3AF0E0E832D091505040E69520
S1130BB0001CCAF72BD0FE2F29D0660F771F881F81
S1130BC0BB1F261737074807AB07B0E809F0BB0B74
S1130BD0802DBF01FF2793585F4F3AF09E3F510588
S1130BE078F00C94C8060C944E075F3FE4F3983EEB
S1130BF0D4F3869577956795B795F7959F5FC9F771
S1130C00880F911D9695879597F90895E1E0660FF1
S1130C10771F881FBB1F621773078407BA0720F06A
S1130C20621B730B840BBA0BEE1F88F7E0950895D3
S1130C300E94330788F09F5798F0B92F9927B7512E
S1130C40B0F0E1F0660F771F881F991F1AF0BA956C
S1130C50C9F714C0B13091F00E944D07B1E0089576
S1130C600C944D07672F782F8827B85F39F0B93F68
S1130C70CCF3869577956795B395D9F73EF490951F
S1130C808095709561957F4F8F4F9F4F0895E8949D
S1130C9009C097FB3EF490958095709561957F4FC0
S1130CA08F4F9F4F9923A9F0F92F96E9BB2793956E
S1130CB0F695879577956795B795F111F8CFFAF47E
S1130CC0BB0F11F460FF1BC06F5F7F4F8F4F9F4FAF
S1130CD016C0882311F096E911C0772321F09EE80D
S1130CE0872F762F05C0662371F096E8862F70E073
S1130CF060E02AF09A95660F771F881FDAF7880F4D
S1130D009695879597F90895DF93CF931F930F9343
S1130D108B01EC01ECE7F0E00E94D1060E941A0777
S1130D209801AE018B01EC0160E070E080E89FE384
S1130D300E9419050E94CC079801AE010F911F91E2
S1130D40CF91DF910C946C07990F0008550FAA0BF3
S1130D50E0E8FEEF16161706E807F907C0F01216CA
S1130D601306E407F50798F0621B730B840B950BCD
S1130D7039F40A2661F0232B242B252B21F4089522
S1130D800A2609F4A140A6958FEF811D811D0895BF
S1130D9097F99F6780E870E060E008959FEF80EC2A
S1130DA00895DF93CF931F930F93FF92EF92DF92F7
S1130DB07B018C01689406C0DA2EEF010E946C0757
S1130DC0FE01E894A5912591359145915591A6F39D
S1130DD0EF010E943105FE019701A801DA9469F739
S1130DE0DF90EF90FF900F911F91CF91DF910895C5
S1130DF09F938F937F936F93FF93EF939B01AC012A
S1130E000E945907EF91FF910E94D1062F913F91C3
S1130E104F915F910C94590700240A9416161706F3
S1130E2018060906089500240A94121613061406D7
S1130E3005060895092E0394000C11F4882352F03A
S1130E40BB0F40F4BF2B11F460FF04C06F5F7F4FF2
S1130E508F4F9F4F089557FD9058440F551F59F0D9
S1130E605F3F71F04795880F97FB991F61F09F3F93
S1130E7079F087950895121613061406551FF2CFBC
S1130E804695F1DF08C0161617061806991FF1CF0C
S1130E9086957105610508940895E894BB27662733
S1130EA07727CB0197F908950E94A40608F48FEFE1
S1130EB008950E946C070C941A070E940C0738F0DE
S1130EC00E94130720F0952311F00C94C8060C948B
S1130ED0CE0611240C944E070E942B0770F3959FA5
S1130EE0C1F3950F50E0551F629FF001729FBB271D
S1130EF0F00DB11D639FAA27F00DB11DAA1F649FB9
S1130F006627B00DA11D661F829F2227B00DA11D6B
S1130F10621F739FB00DA11D621F839FA00D611DF1
S1130F20221F749F3327A00D611D231F849F600D12
S1130F30211D822F762F6A2F11249F5750409AF03B
S1130F40F1F088234AF0EE0FFF1FBB1F661F771FC7
S1130F50881F91505040A9F79E3F510580F00C9492
S1130F60C8060C944E075F3FE4F3983ED4F386958D
S1130F7077956795B795F795E7959F5FC1F7FE2B32
S1130F80880F911D9695879597F9089519F416F48D
S1130F900C94CE060C940C080E943307B8F39923E2
S1130FA0C9F3B6F39F57550B87FF0E941A08002414
S1130FB0A0E640EA900180585695979528F4805C05
S1130FC0660F771F881F20F026173707480730F46D
S1130FD0621B730B840B202931294A2BA695179485
S1130FE00794202531254A2758F7660F771F881F55
S1130FF020F026173707480730F4620B730B840B75
S1131000200D311D411DA09581F7B901842F915800
S1131010880F9695879508959F3F31F0915020F45D
S1131020879577956795B795880F911D96958795C0
S113103097F9089591505040660F771F881FD2F793
S11310400895A0E1B0E0E7E2F8E00C949E0B7C0187
S11310501B016A01FC0117821682838181FF44C34C
S11310609E012F5F3F4F3901F7019381F10193FDF9
S1131070859193FF81911F01882309F431C385323F
S113108039F493FD859193FF81911F01853239F4E1
S1131090B70190E00E94C30C56016501E5CF10E052
S11310A0512C912CFFE1F915D8F08B3279F038F4FA
S11310B0803279F08332A1F4F92DF0612EC08D32A3
S11310C061F0803369F4292D21602DC0392D3260FF
S11310D0932E892D8460982E2AC0E92DE86015C0CE
S11310E097FC2DC020ED280F2A3088F496FE06C008
S11310F03AE0139F200D1124122F19C08AE0589E44
S1131100200D1124522EE92DE0629E2E10C08E3245
S113111031F496FCE5C2F92DF0649F2E08C08C369C
S113112021F4292D2068922E02C0883641F4F10161
S113113093FD859193FF81911F018111B3CF9BEBA7
S1131140980F933020F4992D9061805E07C09BE93D
S1131150980F933008F066C1992D9F7E96FF16E094
S11311609F73992E853619F49064992E08C086369B
S113117021F4392F3068932E02C01111115097FEBB
S113118007C01C3350F444244394410E27E00BC0A1
S1131190183038F027E017E005C027E09CE3492E1B
S11311A002C0212F412C560184E0A80EB11CF60187
S11311B06081718182819381042DA3010E94D50BEA
S11311C06C01F981FC87F0FF02C0F3FF06C091FCBB
S11311D006C092FE06C000E205C00DE203C00BE2A9
S11311E001C000E08C858C7019F001115AC29BC2B9
S11311F097FE10C04C0CFC85F4FF04C08A81813337
S113120009F44A94141474F528E0241578F588E058
S1131210482E2CC096FC2AC0812F90E08C159D0589
S11312209CF03CEFC3163FEFD30674F0892D806821
S1131230982E0AC0E2E0F0E0EC0FFD1FE10FF11D73
S11312408081803319F411501111F4CF97FE0EC030
S113125044244394410E812F90E0C816D9062CF4FF
S11312601C1904C04424439401C010E097FE06C036
S11312701C141D0434F4C601019605C085E090E0F9
S113128002C081E090E001110196112331F0212F79
S113129030E02F5F3F4F820F931F252D30E08217E0
S11312A0930714F4581A01C0512C892D897049F4FC
S11312B0552039F0B70180E290E00E94C30C5A94A3
S11312C0F7CF002329F0B701802F90E00E94C30CD0
S11312D093FC09C0552039F0B70180E390E00E94E7
S11312E0C30C5A94F7CF97FE4CC04601D7FE02C0F8
S11312F0812C912CC60188199909F301E80FF91F73
S1131300FE87ED87960124193109388B2F87012F29
S113131010E01195019511093FEF8316930629F406
S1131320B7018EE290E00E94C30CC814D9044CF0BB
S11313308F8598898815990524F4ED85FE8581812A
S113134001C080E3F1E08F1A91082D853E852F5F5F
S11313503F4F3E872D87801691062CF0B70190E011
S11313600E94C30CD9CFC814D90441F49A8196338E
S113137020F4953319F43C8534FF81E3B70190E000
S11313804EC08A81813319F09C859F7E9C87B7016A
S113139090E00E94C30C111105C094FC18C085E6AE
S11313A090E017C0B7018EE290E00E94C30C1E5F6C
S11313B082E001E0080FF301E80FF11D8081B7011D
S11313C090E00E94C30C802F0113F3CFE6CF85E495
S11313D090E0B7010E94C30CD7FC06C0C114D1042D
S11313E041F4EC85E4FF05C0D194C194D1088DE2A9
S11313F001C08BE2B70190E00E94C30C80E32AE0B5
S1131400C216D1042CF08F5FFAE0CF1AD108F7CFBF
S1131410B70190E00E94C30CB701C601C0960E94B8
S1131420C30C54C1833631F0833779F0833509F026
S113143056C020C0560132E0A30EB11CF6018081D3
S1131440898301E010E0630112C05601F2E0AF0E9F
S1131450B11CF601C080D18096FE03C0612F70E0FC
S113146002C06FEF7FEFC6010E94B80C8C01F92D0A
S1131470FF7714C0560122E0A20EB11CF601C08011
S1131480D18096FE03C0612F70E002C06FEF7FEF42
S1131490C6010E94AD0C8C01F92DF0689F2EF3FD5E
S11314A01AC0852D90E008171907A8F4B70180E247
S11314B090E00E94C30C5A94F4CFF60197FC8591F6
S11314C097FE81916F01B70190E00E94C30C511007
S11314D05A94015011090115110579F7F7C08436A2
S11314E011F0893661F5560197FE09C024E0A20E79
S11314F0B11CF60160817181828193810AC0F2E09E
S1131500AF0EB11CF60160817181072E000C880BAF
S1131510990BF92DFF769F2E97FF09C09095809522
S1131520709561957F4F8F4F9F4FF0689F2E2AE0F3
S113153030E0A3010E94FF0CC82EC6183FC0092D3D
S1131540853721F40F7E2AE030E01DC0097F8F36F5
S113155091F018F4883559F0C3C0803719F08837F2
S113156011F0BEC0006104FF09C0046007C094FE0E
S113157008C0066006C028E030E005C020E130E085
S113158002C020E132E0560107FF09C084E0A80E42
S1131590B11CF601608171818281938108C0F2E0FF
S11315A0AF0EB11CF6016081718180E090E0A3016F
S11315B00E94FF0CC82EC6180F77902E96FE0BC003
S11315C0092D0E7FC11650F494FE0AC092FC08C087
S11315D0092D0E7E05C0DC2C092D03C0DC2C01C0B6
S11315E0D12E04FF0DC0FE01EC0DF11D808180336E
S11315F011F4097E09C002FF06C0D394D39404C039
S1131600802F867809F0D39403FD11C000FF06C033
S11316101C2DD51480F4150D1D190DC0D51458F4C6
S1131620B70180E290E00E94C30CD394F7CFD514A5
S113163010F45D1801C0512C04FF10C0B70180E301
S113164090E00E94C30C02FF17C001FD03C088E7AD
S113165090E002C088E590E0B7010CC0802F867846
S113166059F001FF02C08BE201C080E207FD8DE268
S1131670B70190E00E94C30CC11638F4B70180E3AF
S113168090E00E94C30C1150F7CFCA94F301EC0D03
S1131690F11D8081B70190E00E94C30CC110F5CF09
S11316A015C0F4E0F51560F584E0581A93FE1FC0E8
S11316B0011127C02C8523FF2AC004EA10E0392D2C
S11316C03071932EF8018491811124C0552009F4BE
S11316D0E4CCB70180E290E00E94C30C5A94F6CFA8
S11316E0F7018681978126C08FEF9FEF23C0B70152
S11316F080E290E00E94C30C5A945110F8CFD8CFE6
S1131700512CB701802F90E00E94C30CD3CF08EA7C
S113171010E0D5CF91108052B70190E00E94C30C25
S11317200F5F1F4FCFCF23E0251510F483E0BDCF0B
S1131730512CC0CF6096E2E10C94BA0B2F923F92E9
S11317404F925F926F927F928F929F92AF92BF92CD
S1131750CF92DF92EF92FF920F931F93CF93DF9379
S1131760CDB7DEB7CA1BDB0B0FB6F894DEBF0FBED6
S1131770CDBF09942A88398848885F846E847D8423
S11317808C849B84AA84B984C884DF80EE80FD8025
S11317900C811B81AA81B981CE0FD11D0FB6F8949B
S11317A0DEBF0FBECDBFED010895283008F027E05D
S11317B03327DA01990F311D87FD91600096610589
S11317C0710539F432602E5F3D9330E32A95E1F7D9
S11317D008959F3F30F080387105610509F03C5F42
S11317E03C5F3D93913008F08068911DDF93CF9367
S11317F01F930F93FF92EF92192F987F9695E92FDD
S113180096959695E90FFF27EA5FFE4F99273327B0
S1131810EE24FF24A701E70105900894079428F417
S1131820360FE71EF81E491F511D660F771F881FCC
S1131830991F0694A1F70590079428F4E70EF81E63
S1131840491F561FC11D770F881F991F661F0694D5
S1131850A1F70590079428F4F80E491F561FC71FD7
S1131860D11D880F991F661F771F0694A1F7059055
S1131870079420F4490F561FC71FD81F990F661FDE
S1131880771F881F0694A9F784911095177041F06B
S1131890D695C79557954795F794E7941A95C1F748
S11318A0ECEAF0E068941590159135916591959165
S11318B005907FE27395E118F10A430B560BC90BAF
S11318C0D009C0F7E10CF11E431F561FC91FD01DDC
S11318D07EF4703311F48A95E6CFE894015030F029
S11318E0080F0AF40027021708F4202F2395022F6B
S11318F07A3328F079E37D932A95E9F710C07D9334
S11319002A9589F6069497956795379517951794B0
S1131910E118F10A430B560BC90BD00998F0239533
S11319207E9173957A3308F070E37C932013B8F7B3
S11319307E9170617D9330F0839571E37D9370E3C4
S11319402A95E1F71124EF90FF900F911F91CF9109
S1131950DF91992787FD90950895FC0105906150CA
S113196070400110D8F7809590958E0F9F1F0895B1
S1131970FC016150704001900110D8F7809590955A
S11319808E0F9F1F08950F931F93CF93DF93FB0137
S1131990238121FD03C08FEF9FEF2CC022FF16C0CF
S11319A046815781248135814217530744F4A0812D
S11319B0B1819D012F5F3F4F318320838C9326811A
S11319C037812F5F3F4F3783268314C08B01EC018F
S11319D0FB010084F185E02D0995892BE1F6D801FE
S11319E016968D919C911797019617969C938E93BA
S11319F01697CE01DF91CF911F910F910895FA01AF
S1131A00AA27283051F1203181F1E8946F936E7F39
S1131A106E5F7F4F8F4F9F4FAF4FB1E03ED0B4E02A
S1131A203CD0670F781F891F9A1FA11D680F791F6B
S1131A308A1F911DA11D6A0F711D811D911DA11D7C
S1131A4020D009F468943F912AE0269F112430198C
S1131A50305D3193DEF6CF010895462F4770405D27
S1131A604193B3E00FD0C9F7F6CF462F4F70405DD6
S1131A704A3318F0495D31FD4052419302D0A9F731
S1131A80EACFB4E0A6959795879577956795BA952B
S1131A90C9F700976105710508959B01AC010A2EF1
S1131AA006945795479537952795BA95C9F7620FC8
S1111AB0731F841F951FA01D0895F894FFCF87
S1131ABE0000000200000000F20000000000ACC5AF
S10D1ACE273A000000410000004127
S9030000FC
