:100000000C9434000C9451000C9451000C94510049
:100010000C9451000C9451000C9451000C9451001C
:100020000C9451000C9451000C946B000C945100F2
:100030000C9451000C94AE010C9451000C9451009E
:100040000C9451000C9451000C9451000C945100EC
:100050000C9451000C9451000C9451000C945100DC
:100060000C9451000C94510011241FBECFEFD8E026
:10007000DEBFCDBF11E0A0E0B1E0EAECFBE002C0E2
:1000800005900D92A431B107D9F721E0A4E1B1E0C8
:1000900001C01D92A132B207E1F70E9408020C9440
:1000A000E3050C940000CF93C82F8A3019F48DE03B
:1000B0000E9453008091C00085FFFCCFC093C60012
:1000C00080E090E0CF91089582E88093810081E202
:1000D00080936F0008951F920F920FB60F92112414
:1000E0002F933F938F939F931092850010928400DB
:1000F000809115018F5F80931501109214018091FA
:100100001501823089F480918600909187008133B7
:10011000954708F015C18091860090918700883A34
:10012000914608F012C10CC180911501833208F08C
:10013000B4C080911501833008F4AFC0809186006F
:1001400090918700813C924108F045C080918600E3
:1001500090918700803A9F40F0F1809115018B309B
:1001600068F42091150130911701235081E090E04F
:1001700001C0880F2A95EAF7832B50C080911501A2
:10018000833168F420911501309118012B5081E0E2
:1001900090E001C0880F2A95EAF7832B55C0809123
:1001A0001501209115018B3158F43091190123511B
:1001B00081E090E001C0880F2A95EAF7832B5AC0AE
:1001C00030911A012B5181E090E001C0880F2A95EF
:1001D000EAF7832B5FC0809186009091870081367B
:1001E000994008F0ADC080918600909187008830DA
:1001F000974008F4A5C0809115018B3090F42091B0
:10020000150130911701235081E090E002C0880F62
:10021000991F2A95E2F78095909583238093170183
:1002200094C080911501833190F420911501309193
:1002300018012B5081E090E002C0880F991F2A9589
:10024000E2F7809590958323809318017EC080917A
:100250001501209115018B3180F430911901235142
:1002600081E090E002C0880F991F2A95E2F78095FF
:10027000909583238093190168C030911A012B5106
:1002800081E090E002C0880F991F2A95E2F78095DF
:100290009095832380931A0158C080911501833271
:1002A00099F49091190180911A018095981308C0D2
:1002B00010920E01809116018F5F8093160145C048
:1002C0001092150184E03FC080911501843279F4C9
:1002D0008091860090918700813C9D45F8F4809143
:1002E00086009091870080329E44C0F02EC080919D
:1002F0001501853251F58091860090918700893EE5
:100300009D4F60F480918600909187008033924FDA
:1003100028F083E28093150181E015C0809186006A
:10032000909187008133954758F480918600909191
:100330008700883A914620F082E08093150105C03D
:100340001092150183E080930E019F918F913F9150
:100350002F910F900FBE0F901F9018951F920F9224
:100360000FB60F9211248F93809114018F5F8093A9
:10037000140180911401853029F41092150182E056
:1003800080930E018F910F900FBE0F901F901895C4
:100390009BB194619BB99BB197779BB988BD67BDB1
:1003A00008959BB198689BB99BB19B7E9BB988BD12
:1003B00067BD08959BB198619BB99BB19B779BB931
:1003C00088BD67BD08959BB194689BB99BB1977E2A
:1003D0009BB988BD67BD08955A9A9BB197769BB922
:1003E00088BD08955C9A9BB193779BB987BD0895AA
:1003F0005F9A9BB1937E9BB987BD08955B9A9BB131
:100400009B769BB988BD08958BB183768BB908958F
:1004100082E090E00E949605C82F81E090E00E9463
:100420009605D82F1092C50080E18093C40088E122
:100430008093C1008EE28093C20080E091E09093AF
:100440001E0180931D018AB18C6F8AB981EA84BD37
:1004500085E085BD0E94640087B1806387B918B1CB
:1004600080E090E00E949605812B88B9789480E323
:10047000F82E0FE011E080910E01882329F0809181
:100480000E01813009F054C0809119018A3C21F09D
:1004900080911901833929F46D2F8C2F0E94C80196
:1004A0004DC080911901823D21F0809119018B3856
:1004B00029F46D2F8C2F0E94D10140C08091190129
:1004C000813C21F080911901883C29F46D2F8C2FFB
:1004D0000E94E30133C080911901893921F0809194
:1004E00019018E3829F46D2F8C2F0E94DA0126C055
:1004F00080911901823921F48D2F0E94F2011EC0D2
:10050000809119018C3C21F48C2F0E94EC0116C0C3
:10051000809119018A3821F48C2F0E94FE010EC0AF
:1005200080911901843C51F48D2F0E94F80106C07E
:1005300080910E01823011F40E9404028091160114
:10054000882309F43FC010921601809119018D3D56
:1005500021F4CF3F41F1CB5F26C0809119018C3847
:1005600021F4CC2301F1C5501EC0809119018839B6
:1005700021F4DF3FC1F0DB5F16C08091190187399C
:1005800021F4DD2381F0D5500EC0809119018C3DFE
:1005900021F488B18F2588B906C08091190183386C
:1005A00011F4DFEFCFEF68B180E090E00E949E058C
:1005B0006C2F82E090E00E949E056D2F81E090E01C
:1005C0000E949E05809119011F928F931F930F9394
:1005D0000E94EF020F900F900F900F904CCFA0E071
:1005E000B0E0E5EFF2E00C94BC05AE014B5F5F4F6D
:1005F000FA0161917191AF0180911D0190911E01ED
:100600000E940503E2E00C94D805ABE0B0E0EBE01B
:10061000F3E00C94AC056C017B018A01FC011782AC
:100620001682838181FFCCC1CE0101963C01F60187
:100630009381F70193FD859193FF81917F01882339
:1006400009F4BAC1853239F493FD859193FF819104
:100650007F01853229F4B60190E00E94FC04E7CFC7
:10066000912C212C312CFFE1F315D8F08B3279F04D
:1006700038F4803279F08332A1F4232D20611DC03B
:100680008D3261F0803369F4232D216016C0832DF3
:100690008260382EE32DE4603E2E2AC0F32DF860F0
:1006A0001DC037FC2DC020ED280F2A3040F08E32BF
:1006B000B9F436FC81C1232D2064322E19C036FED8
:1006C00006C08AE0989E200D1124922E11C0EAE007
:1006D0002E9E200D1124222EF32DF0623F2E08C0F5
:1006E0008C3621F4832D8068382E02C0883641F480
:1006F000F70193FD859193FF81917F018111B3CF24
:10070000982F9F7D9554933028F40C5F1F4F9FE3E3
:1007100099830DC0833631F0833771F0833509F04A
:1007200059C021C0F801808189830E5F1F4F882442
:100730008394912C530113C02801F2E04F0E511CF9
:10074000F801A080B18036FE03C0692D70E002C0C0
:100750006FEF7FEFC5010E94F1044C018201F32D80
:10076000FF773F2E16C0280122E0420E511CF801EF
:10077000A080B18036FE03C0692D70E002C06FEF2B
:100780007FEFC5010E94E6044C01F32DF0683F2E77
:10079000820133FC1BC0822D90E088169906B0F4CC
:1007A000B60180E290E00E94FC042A94F4CFF501A7
:1007B00037FC859137FE81915F01B60190E00E9480
:1007C000FC0421102A9421E0821A910881149104DA
:1007D00071F7E8C0843611F0893641F5F80137FE2B
:1007E00007C060817181828193810C5F1F4F08C0B7
:1007F00060817181072E000C880B990B0E5F1F4FD3
:10080000F32DFF763F2E97FF09C090958095709548
:1008100061957F4F8F4F9F4FF0683F2E2AE030E069
:10082000A3010E943805882E861845C0853731F40B
:10083000232D2F7EB22E2AE030E025C0932D997F04
:10084000B92E8F36C1F018F4883579F0B5C08037ED
:1008500019F0883721F0B0C0E92FE061BE2EB4FE58
:100860000DC0FB2DF460BF2E09C034FE0AC0292F35
:100870002660B22E06C028E030E005C020E130E05E
:1008800002C020E132E0F801B7FE07C0608171814B
:10089000828193810C5F1F4F06C06081718180E06F
:1008A00090E00E5F1F4FA3010E943805882E861826
:1008B000FB2DFF773F2E36FE0DC0232D2E7FA22E5F
:1008C000891458F434FE0BC032FC09C0832D8E7E8F
:1008D000A82E05C0B82CA32C03C0B82C01C0B92C7D
:1008E000A4FE0FC0FE01E80DF11D8081803321F4CC
:1008F0009A2D997EA92E09C0A2FE06C0B394B39486
:1009000004C08A2D867809F0B394A3FC11C0A0FE20
:1009100006C0B21488F4280C922C9B180EC0B21496
:1009200060F4B60180E290E00E94FC04B394F7CF3B
:10093000B21418F42B1802C0982C212CA4FE10C05D
:10094000B60180E390E00E94FC04A2FE17C0A1FC67
:1009500003C088E790E002C088E590E0B6010CC0D3
:100960008A2D867859F0A1FE02C08BE201C080E298
:10097000A7FC8DE2B60190E00E94FC04891438F4D3
:10098000B60180E390E00E94FC049A94F7CF8A9429
:10099000F301E80DF11D8081B60190E00E94FC0496
:1009A0008110F5CF222009F442CEB60180E290E01A
:1009B0000E94FC042A94F6CFF6018681978102C03A
:1009C0008FEF9FEF2B96E2E10C94C805FC01059098
:1009D000615070400110D8F7809590958E0F9F1F41
:1009E0000895FC016150704001900110D8F7809586
:1009F00090958E0F9F1F08950F931F93CF93DF93B2
:100A0000FB01238121FD03C08FEF9FEF2CC022FF4C
:100A100016C046815781248135814217530744F41B
:100A2000A081B1819D012F5F3F4F318320838C9343
:100A3000268137812F5F3F4F3783268314C08B0178
:100A4000EC01FB010084F185E02D0995892BE1F68D
:100A5000D80116968D919C911797019617969C93A5
:100A60008E931697CE01DF91CF911F910F9108952C
:100A7000FA01AA27283051F1203181F1E8946F93CF
:100A80006E7F6E5F7F4F8F4F9F4FAF4FB1E03ED075
:100A9000B4E03CD0670F781F891F9A1FA11D680F13
:100AA000791F8A1F911DA11D6A0F711D811D911D46
:100AB000A11D20D009F468943F912AE0269F1124BB
:100AC0003019305D3193DEF6CF010895462F47701F
:100AD000405D4193B3E00FD0C9F7F6CF462F4F707A
:100AE000405D4A3318F0495D31FD4052419302D0D8
:100AF000A9F7EACFB4E0A69597958795779567957E
:100B0000BA95C9F700976105710508959B01AC017D
:100B10000A2E06945795479537952795BA95C9F7A4
:100B2000620F731F841F951FA01D0895F999FECFB2
:100B300092BD81BDF89A992780B50895262FF9991D
:100B4000FECF1FBA92BD81BD20BD0FB6F894FA9AB0
:100B5000F99A0FBE019608952F923F924F925F929D
:100B60006F927F928F929F92AF92BF92CF92DF92BD
:100B7000EF92FF920F931F93CF93DF93CDB7DEB722
:100B8000CA1BDB0B0FB6F894DEBF0FBECDBF0994B6
:100B90002A88398848885F846E847D848C849B840D
:100BA000AA84B984C884DF80EE80FD800C811B811B
:100BB000AA81B981CE0FD11D0FB6F894DEBF0FBE4A
:0A0BC000CDBFED010895F894FFCFBA
:100BCA00000000020000000053000000000002259F
:040BDA00750A000098
:00000001FF
