:100000000C9434000C9451000C9451000C94510049
:100010000C9451000C9451000C9451000C9451001C
:100020000C9451000C9451000C946B000C945100F2
:100030000C9451000C94AE010C9451000C9451009E
:100040000C9451000C9451000C9451000C945100EC
:100050000C9451000C9451000C9451000C945100DC
:100060000C9451000C94510011241FBECFEFD8E026
:10007000DEBFCDBF11E0A0E0B1E0E2EEF5E002C0EE
:1000800005900D92A031B107D9F721E0A0E1B1E0D0
:1000900001C01D92AD31B207E1F70E9408020C9435
:1000A000EF020C940000CF93C82F8A3019F48DE032
:1000B0000E9453008091C00085FFFCCFC093C60012
:1000C00080E090E0CF91089582E88093810081E202
:1000D00080936F0008951F920F920FB60F92112414
:1000E0002F933F938F939F931092850010928400DB
:1000F000809111018F5F8093110110921001809106
:100100001101823089F480918600909187008133BB
:10011000954708F015C18091860090918700883A34
:10012000914608F012C10CC180911101833208F090
:10013000B4C080911101833008F4AFC08091860073
:1001400090918700813C924108F045C080918600E3
:1001500090918700803A9F40F0F1809111018B309F
:1001600068F42091110130911301235081E090E057
:1001700001C0880F2A95EAF7832B50C080911101A6
:10018000833168F420911101309114012B5081E0EA
:1001900090E001C0880F2A95EAF7832B55C0809123
:1001A0001101209111018B3158F430911501235127
:1001B00081E090E001C0880F2A95EAF7832B5AC0AE
:1001C000309116012B5181E090E001C0880F2A95F3
:1001D000EAF7832B5FC0809186009091870081367B
:1001E000994008F0ADC080918600909187008830DA
:1001F000974008F4A5C0809111018B3090F42091B4
:10020000110130911301235081E090E002C0880F6A
:10021000991F2A95E2F78095909583238093130187
:1002200094C080911101833190F42091110130919B
:1002300014012B5081E090E002C0880F991F2A958D
:10024000E2F7809590958323809314017EC080917E
:100250001101209111018B3180F43091150123514E
:1002600081E090E002C0880F991F2A95E2F78095FF
:10027000909583238093150168C0309116012B510E
:1002800081E090E002C0880F991F2A95E2F78095DF
:10029000909583238093160158C080911101833279
:1002A00099F490911501809116018095981308C0DA
:1002B00010920E01809112018F5F8093120145C050
:1002C0001092110184E03FC080911101843279F4D1
:1002D0008091860090918700813C9D45F8F4809143
:1002E00086009091870080329E44C0F02EC080919D
:1002F0001101853251F58091860090918700893EE9
:100300009D4F60F480918600909187008033924FDA
:1003100028F083E28093110181E015C0809186006E
:10032000909187008133954758F480918600909191
:100330008700883A914620F082E08093110105C041
:100340001092110183E080930E019F918F913F9154
:100350002F910F900FBE0F901F9018951F920F9224
:100360000FB60F9211248F93809110018F5F8093AD
:10037000100180911001853029F41092110182E062
:1003800080930E018F910F900FBE0F901F901895C4
:100390009BB194619BB99BB197779BB988BD67BDB1
:1003A00008959BB198689BB99BB19B7E9BB988BD12
:1003B00067BD08959BB198619BB99BB19B779BB931
:1003C00088BD67BD08959BB194689BB99BB1977E2A
:1003D0009BB988BD67BD08955A9A9BB197769BB922
:1003E00088BD08955C9A9BB193779BB987BD0895AA
:1003F0005F9A9BB1937E9BB987BD08955B9A9BB131
:100400009B769BB988BD08958BB183768BB908958F
:1004100082E090E00E94D902D82F81E090E00E9413
:10042000D902C82F1092C50080E18093C40088E1F2
:100430008093C1008EE28093C20080E091E09093AF
:100440001A01809319018AB18C6F8AB981EA84BD3F
:1004500085E085BD0E94640087B1806387B918B1CB
:1004600080E090E00E94D902812B88B9789410E353
:1004700080910E01882329F080910E01813009F0CE
:1004800054C0809115018A3C21F080911501833977
:1004900029F46C2F8D2F0E94C8014DC08091150149
:1004A000823D21F0809115018B3829F46C2F8D2F1E
:1004B0000E94D10140C080911501813C21F08091C2
:1004C0001501883C29F46C2F8D2F0E94E30133C065
:1004D00080911501893921F0809115018E3829F418
:1004E0006C2F8D2F0E94DA0126C080911501823970
:1004F00021F48C2F0E94F2011EC0809115018C3CCA
:1005000021F48D2F0E94EC0116C0809115018A38CC
:1005100021F48D2F0E94FE010EC080911501843CB4
:1005200051F48C2F0E94F80106C080910E01823098
:1005300011F40E94040280911201882309F498CFDB
:1005400010921201809115018D3D21F4DF3F09F1D8
:10055000DB5F1FC0809115018C3821F4DD23C9F0C9
:10056000D55017C080911501883921F4CF3F89F00B
:10057000CB5F0FC080911501873921F4CC2349F05E
:10058000C55007C0809115018C3D19F488B18127B1
:1005900088B968B180E090E00E94E1026D2F82E0AE
:1005A00090E00E94E1026C2F81E090E00E94E10265
:1005B0005FCFF999FECF92BD81BDF89A992780B59A
:1005C0000895262FF999FECF1FBA92BD81BD20BD97
:1005D0000FB6F894FA9AF99A0FBE01960895F89416
:0205E000FFCF4B
:1005E20000000002000000005300000000000200B2
:00000001FF
