S0120000676573747572652074782E7372656307
S11300000C9434000C943E000C943E000C943E007E
S11300100C943E000C943E000C943E000C943E0064
S11300200C943E000C943E000C943E000C943E0054
S11300300C943E000C943E000C943E000C943E0044
S11300400C943E000C943E000C943E000C943E0034
S11300500C943E000C943E000C943E000C943E0024
S11300600C943E000C943E0011241FBECFEFD8E048
S1130070DEBFCDBF0E94C1010C9479020C94000034
S11300805A9A0000000000005A980895CF938AB14C
S113009087788AB9599A8BB186788BB90E944000C7
S11300A0C9B10E944000C6FDF9CF59988AB188674A
S11300B08AB9CF910895CF93C82F8BB187788BB924
S11300C09BB18C2F807F8695892B8BB958980E9481
S11300D040008BB187788BB92BB1CF7038E0C39FC8
S11300E0C0011124822B8BB90E944000CF910C9443
S11300F04600CF93C82F8BB187788BB98BB19C2FD7
S1130100907F96958160892B8BB90E9440008BB1BA
S113011087788BB92BB1CF7038E0C39FC00111240D
S1130120822B8BB90E944000CF910C944600811120
S113013002C080E801C080EC860F0C945B00CF9372
S1130140DF93EC0189910E94790088818111FACFB3
S1130150DF91CF910895EF92FF920F931F93CF9366
S1130160DF9300D000D000D0CDB7DEB78C01F62EDF
S1130170842F622F0E9497002FEF2F0DE1E0F0E013
S1130180EC0FFD1FEF0DF11D10828AE0E82EF12C1B
S1130190E1E0F0E0EC0FFD1FE20FF11DC801B70133
S11301A00E946502805D80838B01215088F7CE0117
S11301B001960E949F0026960FB6F894DEBF0FBEEC
S11301C0CDBFDF91CF911F910F91FF90EF900895D4
S11301D084B18C6284B980E58CBD81E08DBD2A9A9E
S11301E008958EBD0DB407FEFDCF8EB508952A98EF
S11301F008952A9A0895CF93DF93D82FC62F0E948B
S1130200F7008D2F80620E94F1008C2F0E94F10074
S1130210DF91CF910C94F900FF920F931F93CF932A
S1130220DF93F82E092F162F0E94F70080EA0E9410
S1130230F100CF2DD02F89910E94F1001150D9F7F0
S11302400E94F9000E94F7008FEF0E94F100C82F6E
S11302500E94F900C5FFF6CF6C2F87E0DF91CF91A4
S11302601F910F91FF900C94FB0084EA8093BC00D3
S11302708091BC0087FFFCCF089584EC8093BC0080
S11302808091BC0087FFFCCF8091BB00089584E877
S11302908093BC008091BC0087FFFCCF8091BB00A1
S11302A008958093BB0084E88093BC008091BC00D7
S11302B087FFFCCF0895CF93DF93D82FC62F0E94DA
S11302C0350180ED0E9451018D2F0E9451018C2F28
S11302D00E94510184E98093BC00DF91CF9108957D
S11302E0FF920F931F93CF93DF93C82FF62E072F00
S11302F0142F0E94350180ED0E9451018C2F0E9421
S11303005101CF2DD02F89910E9451011150D9F75D
S113031084E98093BC00DF91CF911F910F91FF90EE
S11303200895EF92FF920F931F93CF93F82E8B01B2
S1130330C42F0E94350180ED0E9451018F2D0E942F
S113034051010E94350181ED0E945101C13029F40F
S11303500E944701F801808309C07801FFEFEF1A7A
S1130360FF0A0E943D01F80180838701C15071F7A3
S113037084E98093BC00CF911F910F91FF90EF907F
S11303800895CF93DF93CDB7DEB72C970FB6F894CB
S1130390DEBF0FBECDBF8AB18F678AB98FEF99EFE9
S11303A00197F1F700C000008BB18C798BB98BB148
S11303B088618BB90E94400087EC90E00197F1F7C7
S11303C000C000008BB18C798BB98BB188618BB97B
S11303D00E94400087EC90E00197F1F700C0000014
S11303E08BB184798BB95C9A0E9440000E944600CC
S11303F088E20E945B008CE00E945B0081E00E9426
S11304005B0082E08093B80041E061E070E08BE63D
S11304100E94700160E08AE10E945B010E94E80092
S113042068E780E00E94FB008FE39FE10197F1F70A
S113043000C00000299A95E39A95F1F700006AE755
S113044080E00E94FB0060E081E00E94FB0061E02C
S113045082E00E94FB0063E184E00E94FB006CE008
S113046081E10E94FB0046E0BE016F5F7F4F8BE39A
S11304700E94910146E0BE016A5F7F4F83E40E94BF
S113048091016CE0CE0101960E940C0189819A8150
S113049020E040E065E09827892798270E94AB0078
S11304A08B819C8128E040E065E098278927982784
S11304B00E94AB008D819E8120E041E065E0982799
S11304C0892798270E94AB00CECFAA1BBB1B51E102
S11304D007C0AA1FBB1FA617B70710F0A61BB70BB0
S11304E0881F991F5A95A9F780959095BC01CD0155
S10904F00895F894FFCF0B
S9030000FC
