:100000000C9434000C9451000C9451000C94510049
:100010000C9451000C9451000C9451000C9451001C
:100020000C9451000C9451000C9451000C9451000C
:100030000C9451000C9451000C9451000C945100FC
:100040000C9451000C9451000C9451000C945100EC
:100050000C9451000C9451000C9451000C945100DC
:100060000C9451000C94510011241FBECFEFD8E026
:10007000DEBFCDBF11E0A0E0B1E0EAE4F6E002C0EF
:1000800005900D92A030B107D9F711E0A0E0B1E0E2
:1000900001C01D92A030B107E1F70E9468020C94E4
:1000A00023030C9400005A9A0000000000005A98A4
:1000B0000895CF938AB187788AB9599A8BB1867897
:1000C0008BB90E945300C9B10E945300C6FDF9CFFD
:1000D00059988AB188678AB9CF910895CF93DF93F1
:1000E0009BB197789BB94BB1C82FD0E09E01207F80
:1000F0003070C90195958795842B8BB958980E94CB
:1001000053008BB187788BB98BB1CF70D070CC0F87
:10011000DD1FCC0FDD1FCC0FDD1FC82BCBB90E941C
:1001200053000E945900DF91CF910895CF93DF9340
:100130009BB197789BB99BB1C82FD0E0492F416004
:100140009E01207F3070C90195958795842B8BB9CE
:100150000E9453008BB187788BB98BB1CF70D07070
:10016000CC0FDD1FCC0FDD1FCC0FDD1FC82BCBB993
:100170000E9453000E945900DF91CF910895882377
:1001800029F4862F80580E946E000895862F80548F
:100190000E946E0008950F931F93CF93DF93EC019D
:1001A0008C010F5F1F4F89910E949600F801819189
:1001B0008F018823C1F7DF91CF911F910F9108958F
:1001C000FF920F931F93CF93DF9300D000D000D006
:1001D000CDB7DEB7182F092FF62E842F622F0E947D
:1001E000BF00FE01EF0DF11D1182FA942AE030E00C
:1001F00001C0F82EE1E0F0E0EC0FFD1FEF0DF11D66
:10020000812F902FB9010E940F03805D8083162FEC
:10021000072F8F2D8150FF2061F7CE0101960E949C
:10022000CB0026960FB6F894DEBF0FBECDBFDF9190
:10023000CF911F910F91FF90089584B18C6284B982
:1002400080E58CBD81E08DBD2A9A08958EBD0DB4E8
:1002500007FEFDCF8EB508952A9808952A9A08952D
:10026000CF93DF93D82FC62F0E942C018D2F806251
:100270000E9426018C2F0E9426010E942E01DF91F0
:10028000CF910895CF93C82F0E942C018C2F0E94EC
:10029000260180E00E942601C82F0E942E018C2F8B
:1002A000CF9108950F931F93CF93DF93082FEB0106
:1002B000142F0E942C01802F80620E9426018991B8
:1002C0000E9426011150D9F70E942E01DF91CF9193
:1002D0001F910F9108950F931F93CF93DF93082FD2
:1002E000EB01142F0E942C01802F0E94260180E038
:1002F0000E94260189931150D1F70E942E01DF91AF
:10030000CF911F910F9108951F93CF93DF93EC012D
:10031000162F0E942C0180EA0E94260189910E94DA
:1003200026011150D9F70E942E010E942C018FEF57
:100330000E942601C82F0E942E01C5FFF6CF87E03C
:100340006C2F0E943001DF91CF911F9108950F9380
:100350001F93CF93DF93EC01162F0E942C018FEF98
:100360000E942601082F0E942E0106FFF6CF0E9450
:100370002C0181E60E94260180E00E9426018993DB
:100380001150D1F70E942E0187E0602F0E943001AA
:10039000DF91CF911F910F910895089584EA809382
:1003A000BC00ECEBF0E080818823ECF7089584E951
:1003B0008093BC00089584EC8093BC00ECEBF0E0EB
:1003C00080818823ECF78091BB00089584E88093B6
:1003D000BC00ECEBF0E080818823ECF78091BB005F
:1003E00008958093BB0084E88093BC00ECEBF0E0C0
:1003F00080818823ECF70895CF93DF93D82FC62F01
:100400000E94CE0180ED0E94F1018D2F0E94F1012A
:100410008C2F0E94F1010E94D701DF91CF910895A6
:10042000CF93C82F0E94CE0180ED0E94F1018C2F46
:100430000E94F1010E94CE0181ED0E94F1010E9413
:10044000E601C82F0E94D7018C2FCF9108950F93FA
:100450001F93CF93DF93082FEB01142F0E94CE013F
:1004600080ED0E94F101802F0E94F10189910E948C
:10047000F1011150D9F70E94D701DF91CF911F915F
:100480000F9108950F931F93CF93DF93082FEB01E4
:10049000142F0E94CE0180ED0E94F101802F0E9456
:1004A000F1010E94CE0181ED0E94F101113021F491
:1004B0000E94E601888305C00E94DB0189931150E8
:1004C000A9F70E94D701DF91CF911F910F91089555
:1004D000CF93DF93CDB7DEB72C970FB6F894DEBF7E
:1004E0000FBECDBF8AB18F678AB98FEF99EF0197A1
:1004F000F1F700C000008BB18C798BB98BB18861AA
:100500008BB90E94530087EC90E00197F1F700C08F
:1005100000008BB18C798BB98BB188618BB90E944B
:10052000530087EC90E00197F1F700C000008BB119
:1005300084798BB95C9A0E9453000E94590088E22A
:100540000E946E008CE00E946E0081E00E946E00AE
:1005500082E08093B8008BE661E070E041E00E94A9
:1005600027028AE160E00E94FC010E941D0180E0F8
:1005700068E70E9430018FE39FE10197F1F700C027
:100580000000299A95E39A95F1F7000080E06AE768
:100590000E94300181E060E00E94300182E061E071
:1005A0000E94300184E063E10E94300181E16CE04F
:1005B0000E9430018BE3BE016F5F7F4F46E00E94D7
:1005C000420283E4BE016A5F7F4F46E00E9442021E
:1005D000CE0101966CE00E948401D980CC248A81EE
:1005E00090E08C299D2965E040E020E00E94E00039
:1005F000FB80EE248C8190E08E299F2965E040E00D
:1006000028E00E94E0001D8100E08E8190E0802BB8
:10061000912B65E041E020E00E94E000CBCFAA1BD7
:10062000BB1B51E107C0AA1FBB1FA617B70710F0DD
:10063000A61BB70B881F991F5A95A9F7809590950F
:0A064000BC01CD010895F894FFCF2E
:00000001FF
