S01B0000756C747261736F6E696320697220726F626F742E7372656384
S11300000C9434000C9451000C9451000C94510045
S11300100C9451000C9451000C9451000C94510018
S11300200C9451000C9451000C9497000C945100C2
S11300300C9451000C9453000C9451000C945100F6
S11300400C9451000C9451000C9451000C945100E8
S11300500C9451000C9451000C9451000C945100D8
S11300600C9451000C94510011241FBECFEFD8E022
S1130070DEBFCDBF11E0A0E0B1E0E0E9F1E002C0F5
S113008005900D92A230B107D9F721E0A2E0B1E0CA
S113009001C01D92AF32B207E1F70E94C5000C9473
S11300A0C6000C9400001F920F920FB60F921124F9
S11300B08F9380910001813029F4809102018F5F38
S11300C08093020180910201843029F4109203018B
S11300D082E0809300018F910F900FBE0F901F90CC
S11300E01895A5E0B1E09996EC919997F0E0EE0FA0
S11300F0FF1FEB5FFE4F9183808399968C91833130
S113010019F410922E0105C0E5E0F1E081A58F5F9E
S113011081A7E5E0F1E091A580A5981304C082E0F1
S113012080930401089581E08093040108951F924F
S11301300F920FB60F9211242F933F934F935F9317
S11301406F937F938F939F93AF93BF93EF93FF939B
S11301501092850010928400109202018091860012
S1130160909187000E947100FF91EF91BF91AF9130
S11301709F918F917F916F915F914F913F912F91BB
S11301800F900FBE0F901F901895FFCFF894FFCFDC
S1050190020067
S9030000FC
